{
  "contractName": "ArticleRegister",
  "abi": [
    {
      "anonymous": false,
      "inputs": [
        {
          "indexed": false,
          "internalType": "string",
          "name": "hash",
          "type": "string"
        },
        {
          "indexed": false,
          "internalType": "string",
          "name": "metadata",
          "type": "string"
        },
        {
          "indexed": false,
          "internalType": "uint256",
          "name": "timestamp",
          "type": "uint256"
        }
      ],
      "name": "ArticleRegistered",
      "type": "event"
    },
    {
      "inputs": [
        {
          "internalType": "string",
          "name": "",
          "type": "string"
        }
      ],
      "name": "articles",
      "outputs": [
        {
          "internalType": "string",
          "name": "hash",
          "type": "string"
        },
        {
          "internalType": "string",
          "name": "metadata",
          "type": "string"
        },
        {
          "internalType": "uint256",
          "name": "timestamp",
          "type": "uint256"
        }
      ],
      "stateMutability": "view",
      "type": "function",
      "constant": true
    },
    {
      "inputs": [
        {
          "internalType": "string",
          "name": "_hash",
          "type": "string"
        },
        {
          "internalType": "string",
          "name": "_metadata",
          "type": "string"
        }
      ],
      "name": "registerArticle",
      "outputs": [],
      "stateMutability": "nonpayable",
      "type": "function"
    },
    {
      "inputs": [
        {
          "internalType": "string",
          "name": "_hash",
          "type": "string"
        }
      ],
      "name": "getArticle",
      "outputs": [
        {
          "components": [
            {
              "internalType": "string",
              "name": "hash",
              "type": "string"
            },
            {
              "internalType": "string",
              "name": "metadata",
              "type": "string"
            },
            {
              "internalType": "uint256",
              "name": "timestamp",
              "type": "uint256"
            }
          ],
          "internalType": "struct ArticleRegister.Article",
          "name": "",
          "type": "tuple"
        }
      ],
      "stateMutability": "view",
      "type": "function",
      "constant": true
    }
  ],
  "bytecode": "0x608060405234801561001057600080fd5b50610b03806100206000396000f3fe608060405234801561001057600080fd5b50600436106100415760003560e01c80637c702b8d14610046578063a466666514610078578063cf73c0cb146100a8575b600080fd5b610060600480360381019061005b9190610644565b6100c4565b60405161006f939291906108a0565b60405180910390f35b610092600480360381019061008d9190610644565b610214565b60405161009f9190610925565b60405180910390f35b6100c260048036038101906100bd9190610685565b6103ea565b005b6000818051602081018201805184825260208301602085012081835280955050505050506000915090508060000180546100fd90610a2c565b80601f016020809104026020016040519081016040528092919081815260200182805461012990610a2c565b80156101765780601f1061014b57610100808354040283529160200191610176565b820191906000526020600020905b81548152906001019060200180831161015957829003601f168201915b50505050509080600101805461018b90610a2c565b80601f01602080910402602001604051908101604052809291908181526020018280546101b790610a2c565b80156102045780601f106101d957610100808354040283529160200191610204565b820191906000526020600020905b8154815290600101906020018083116101e757829003601f168201915b5050505050908060020154905083565b61021c610518565b6000808360405161022d9190610889565b9081526020016040518091039020600001805461024990610a2c565b9050141561028c576040517f08c379a0000000000000000000000000000000000000000000000000000000008152600401610283906108e5565b60405180910390fd5b60008260405161029c9190610889565b90815260200160405180910390206040518060600160405290816000820180546102c590610a2c565b80601f01602080910402602001604051908101604052809291908181526020018280546102f190610a2c565b801561033e5780601f106103135761010080835404028352916020019161033e565b820191906000526020600020905b81548152906001019060200180831161032157829003601f168201915b5050505050815260200160018201805461035790610a2c565b80601f016020809104026020016040519081016040528092919081815260200182805461038390610a2c565b80156103d05780601f106103a5576101008083540402835291602001916103d0565b820191906000526020600020905b8154815290600101906020018083116103b357829003601f168201915b505050505081526020016002820154815250509050919050565b600080836040516103fb9190610889565b9081526020016040518091039020600001805461041790610a2c565b905014610459576040517f08c379a000000000000000000000000000000000000000000000000000000000815260040161045090610905565b60405180910390fd5b6040518060600160405280838152602001828152602001428152506000836040516104849190610889565b908152602001604051809103902060008201518160000190805190602001906104ae929190610539565b5060208201518160010190805190602001906104cb929190610539565b50604082015181600201559050507f01015eb023e09d091349a1ad8a4ad59583517d62a0380a90914ddb381798bb2382824260405161050c939291906108a0565b60405180910390a15050565b60405180606001604052806060815260200160608152602001600081525090565b82805461054590610a2c565b90600052602060002090601f01602090048101928261056757600085556105ae565b82601f1061058057805160ff19168380011785556105ae565b828001600101855582156105ae579182015b828111156105ad578251825591602001919060010190610592565b5b5090506105bb91906105bf565b5090565b5b808211156105d85760008160009055506001016105c0565b5090565b60006105ef6105ea84610978565b610947565b90508281526020810184848401111561060757600080fd5b6106128482856109ea565b509392505050565b600082601f83011261062b57600080fd5b813561063b8482602086016105dc565b91505092915050565b60006020828403121561065657600080fd5b600082013567ffffffffffffffff81111561067057600080fd5b61067c8482850161061a565b91505092915050565b6000806040838503121561069857600080fd5b600083013567ffffffffffffffff8111156106b257600080fd5b6106be8582860161061a565b925050602083013567ffffffffffffffff8111156106db57600080fd5b6106e78582860161061a565b9150509250929050565b60006106fc826109a8565b61070681856109b3565b93506107168185602086016109f9565b61071f81610abc565b840191505092915050565b6000610735826109a8565b61073f81856109c4565b935061074f8185602086016109f9565b61075881610abc565b840191505092915050565b600061076e826109a8565b61077881856109d5565b93506107888185602086016109f9565b80840191505092915050565b60006107a16012836109c4565b91507f41727469636c65206e6f7420666f756e642e00000000000000000000000000006000830152602082019050919050565b60006107e1601b836109c4565b91507f41727469636c6520616c726561647920726567697374657265642e00000000006000830152602082019050919050565b6000606083016000830151848203600086015261083182826106f1565b9150506020830151848203602086015261084b82826106f1565b9150506040830151610860604086018261086b565b508091505092915050565b610874816109e0565b82525050565b610883816109e0565b82525050565b60006108958284610763565b915081905092915050565b600060608201905081810360008301526108ba818661072a565b905081810360208301526108ce818561072a565b90506108dd604083018461087a565b949350505050565b600060208201905081810360008301526108fe81610794565b9050919050565b6000602082019050818103600083015261091e816107d4565b9050919050565b6000602082019050818103600083015261093f8184610814565b905092915050565b6000604051905081810181811067ffffffffffffffff8211171561096e5761096d610a8d565b5b8060405250919050565b600067ffffffffffffffff82111561099357610992610a8d565b5b601f19601f8301169050602081019050919050565b600081519050919050565b600082825260208201905092915050565b600082825260208201905092915050565b600081905092915050565b6000819050919050565b82818337600083830152505050565b60005b83811015610a175780820151818401526020810190506109fc565b83811115610a26576000848401525b50505050565b60006002820490506001821680610a4457607f821691505b60208210811415610a5857610a57610a5e565b5b50919050565b7f4e487b7100000000000000000000000000000000000000000000000000000000600052602260045260246000fd5b7f4e487b7100000000000000000000000000000000000000000000000000000000600052604160045260246000fd5b6000601f19601f830116905091905056fea2646970667358221220deafc20a032206606cb4d539a367ac102d1274f0ea4d5e1b762097fc21cc9b0764736f6c63430008000033",
  "immutableReferences": {},
  "source": "// SPDX-License-Identifier: MIT \npragma solidity ^0.8.0;\n\ncontract ArticleRegister {\n    struct Article {\n        string hash;\n        string metadata;\n        uint256 timestamp;\n    }\n\n    mapping(string => Article) public articles;\n\n    event ArticleRegistered(string hash, string metadata, uint256 timestamp);\n\n    function registerArticle(string memory _hash, string memory _metadata) public {\n        require(bytes(articles[_hash].hash).length == 0, \"Article already registered.\");\n        articles[_hash] = Article(_hash, _metadata, block.timestamp);\n        emit ArticleRegistered(_hash, _metadata, block.timestamp);\n    }\n\n    function getArticle(string memory _hash) public view returns (Article memory) {\n        require(bytes(articles[_hash].hash).length != 0, \"Article not found.\");\n        return articles[_hash];\n    }\n}\n",
  "sourcePath": "/Users/walterwagude/Desktop/BlockVerify/contracts/ArticleRegister.sol",
  "compiler": {
    "name": "solc",
    "version": "0.8.0+commit.c7dfd78e.Emscripten.clang"
  },
  "schemaVersion": "3.4.16",
  "updatedAt": "2024-03-12T08:44:39.170Z",
  "networkType": "ethereum",
  "devdoc": {
    "kind": "dev",
    "methods": {},
    "version": 1
  },
  "userdoc": {
    "kind": "user",
    "methods": {},
    "version": 1
  }
}